:100000000C944F020C9487020C9487020C94870284
:100010000C9487020C9487020C9487020C9487023C
:100020000C9487020C9487020C94E20D0C94AA1392
:100030000C94E0220C9487020C9487020C948702A3
:100040000C9487020C9487020C9487020C9487020C
:100050000C9487020C94BB0E0C9487020C948702BC
:100060000C9487020C9487020C9487020C948702EC
:100070000C9487020C9487020C9487020C948702DC
:100080000C9487020C9487020C9487020C948702CC
:100090000C9487020C9487020C9487020C948702BC
:1000A0000C9487020C9487020C94870205010902C4
:1000B000A10185020901A100050919012905150001
:1000C00025019505750181029501750381010501E1
:1000D000093009311581257F950275088106093897
:1000E0001581257F950175088106050C0A380215D2
:1000F00081257F950175088106C0C005010980A191
:1001000001850319012AB700150126B7009501756D
:10011000108100C0050C0901A101850419012AA064
:1001200002150126A002950175108100C005010984
:1001300006A1018506050719E029E71500250195A7
:1001400008750181020507190029EF1500250195A1
:10015000F0750181020508190129059505750191C0
:1001600002950175039101C00660FF0961A10109B3
:1001700062150026FF0095207508810209631500AD
:1001800026FF00952075089102C005010906A1010E
:10019000050719E029E71500250195087501810279
:1001A0009501750881010507190029FF150026FF33
:1001B0000095067508810005081901290595057542
:1001C000019102950175039101C000DA0281FFD906
:1001D000F1DB20A4A62EAF00A0C000A1C800AED5C0
:1001E00080A81FD300408D142000FD377A585A0094
:1001F0000004E6D6B4460200210116000000742F68
:10020000E5A3E0014300AF5D003D8889C65436C3D5
:10021000174FE4E20CD46B8E92C684EBB580970343
:10022000E95AA44FDD90A9985DD9E5999B276F22E3
:10023000BC247F7DEC65A4C0B191B1D44E4A97A592
:10024000DE1BDDF3B6E0206DFBAA8788206CE15D44
:10025000FEA657F9F4B1D79AD0BB55F4D502675D25
:10026000FED7167165CBBF71012CF4241BF9A39541
:100270003D6479CF2A1BEFEA5DE34AFB7AD2EA4577
:100280006DA0A3FE80617CF97D0F1831D2E77E94CA
:100290005EBED46363284839B69488C2393FAB8BBD
:1002A0005399D78A548A9B8F5D19ADD090900D07D2
:1002B0002119139C6FD2A70000000DB40F56EA0B52
:1002C0008B1E0001CB01C402000025BEB17FB1C46A
:1002D00067FB020000000004595AFA00F900A90067
:1002E000AA00000000000000000001000100010061
:1002F0000100680069006A006B006C006D00E0009E
:100300006E006F004A00A80000000000000000001E
:1003100000000000000000000000000000000100DC
:1003200001000100010001000100010001000100C5
:100330000100010000AF00AE09025B00030100A054
:10034000FA09040000010301010009211101000163
:10035000224000070581030800010904010002038F
:10036000000000092111010001222200070582037B
:100370002000010705030320000109040200010316
:1003800000000009211101000122BC0007058403BF
:100390002000011201000200000008EDFE60600173
:1003A00000010203011C037600690061006C003A41
:1003B00000660036003400630032006200330063E0
:1003C00000000012034C00610064006900730050DB
:1003D000006100640000001003500065006C0069BB
:1003E00000630061006E00000004030904000000C7
:1003F00000000000000000000000000000000000FD
:1004000000000000000000000000000000000000EC
:10041000007E0F00D4FFFFFFC7000000780000003F
:1004200000000000002A2B2800000000000000004F
:10043000000000000000000029000000002C1E3415
:1004400020212224342627252E362D3738271E1F1B
:10045000202122232425263333362E37381F040546
:10046000060708090A0B0C0D0E0F101112131415B4
:10047000161718191A1B1C1D2F3130232D35040592
:10048000060708090A0B0C0D0E0F10111213141594
:10049000161718191A1B1C1D2F3130354C0011244A
:1004A0001FBECFEFDAE0DEBFCDBF04B603FE18C03B
:1004B0008091CF059091D005A091D105B091D20542
:1004C0008730904BA740B04B59F41092CF05109253
:1004D000D0051092D1051092D205E0E0F8E309951D
:1004E00011E0A0E0B1E0E8E2FBE502C005900D926A
:1004F000A638B107D9F725E0A6E8B1E001C01D9202
:10050000AF3CB207E1F70E9407230C946E2D0C94C8
:100510000000E8EDF0E080818E7F80831092E200A1
:100520001092DA001092E100A0EEB0E08C918160B0
:100530008C9380818F77808319BCA7EDB0E08C917C
:100540008E7F8C9380818F7E808310929F0508958B
:100550002091E4003091E50095E6A9012091EC009E
:10056000822F817020FF06C08091E80080FF06C0C6
:1005700080E008952091E80022FD1AC08091C40512
:10058000882389F0853089F08091EB0085FD0FC0CC
:100590002091E4003091E50042175307F9F29150A1
:1005A000E1F684E0089582E0089583E0089581E013
:1005B0000895EF92FF920F931F93CF937C018B01CD
:1005C0000E94A802C82F811117C08091E80085FD04
:1005D0000BC08091E8008E778093E8000E94A8020B
:1005E000882399F3C82F08C0F70181917F01809378
:1005F000F1000150110949F78C2FCF911F910F91F4
:10060000FF90EF9008958091C60587FF13C08091F9
:10061000E80082FF06C08091E8008B778093E800B5
:1006200004C08091C4058111F2CF08958091C40562
:100630008823D9F38091E80080FFF8CF8091E8000B
:100640008E77ECCF982F9093E900242F762F50E0EF
:10065000891731F07091EC002091ED005091F0007D
:1006600021FD07C09F5F973071F78093E90081E01B
:1006700008953091EB003E7F3093EB003091ED0018
:100680003D7F3093ED003091EB0031603093EB0013
:100690007093EC002093ED005093F0002091EE0059
:1006A00027FDE0CF80E00895B0E0A0E0EAE5F3E0C8
:1006B0000C94A92CC8EDD0E088818F7E8883E7ED6B
:1006C000F0E080818160808384E082BF81E080935C
:1006D0009F0588818E7F888302EE10E0F8011082EA
:1006E0001092DA0081EEC82ED12CF601108288819A
:1006F0008F77888388818068888388818F7D8883CD
:1007000019BC1092C4051092C5051092C305109231
:10071000C20590EEE92EF12CF70180818B7F80835A
:1007200088818160888342E060E080E00E9422034B
:10073000F60180818E7F8083F801808181608083D3
:10074000808188608083F70180818E7F80838881AB
:1007500080618883CDB7DEB7E8E00C94C52CFC013E
:100760008091CC059091CD0586179707A0F0611573
:10077000710529F49091E8009E779093E80090E04D
:100780006115710551F4911108C08091E80082FF54
:1007900034C080E00895BC01F2CF8091C405882365
:1007A000C1F18530C1F18091E80083FD30C08091B6
:1007B000E80082FDEACF8091E80080FFE1CF8091E0
:1007C000F3002091F200382F6115710519F02830DF
:1007D000310558F091E02830310509F090E0209182
:1007E000E8002E772093E800CBCF81918093F10031
:1007F000615071092F5F3F4FE7CF8091C405882377
:1008000041F0853041F08091E80083FFBECF81E068
:10081000089582E0089583E0089508958091A105E8
:1008200008952FB7F894609196057091970580917F
:100830009805909199052FBF0895209193053091C7
:1008400094052817390771F09093940580939305C8
:10085000E0919105F0919205309721F00084F185A7
:10086000E02D0995089520918F0530919005281766
:10087000390771F09093900580938F05E091910571
:10088000F0919205309721F00680F781E02D0995CF
:100890000895E0919105F0919205309729F001902B
:1008A000F081E02D0995089580E00895CF93DF93BE
:1008B000EC0140917D0550917E0560917F0570911E
:1008C00080052FB7F8948091960590919705A09197
:1008D0009805B09199052FBF841B950BA60BB70BFC
:1008E000843F9140A105B10518F580917D05909157
:1008F0007E05A0917F05B091800580937905909346
:100900007A05A0937B05B0937C0584EF91E0A0E08D
:10091000B0E08093750590937605A0937705B0932A
:100920007805D0938505C0938405DF91CF91089514
:100930000E9411046093790570937A0580937B057A
:1009400090937C0582E390E0A0E0B0E0E2CFFC0170
:100950008481862351F492819923B9F0692380859B
:1009600083FF05C081E061110FC080E00895892FE9
:100970008F7092959F70982B862F8F7062956F70F5
:10098000682B81E09613F1CF089581E0FDCFE0E779
:10099000F4E090E080E069E478E140E758E12AEC97
:1009A00037E177836683518740873387228795872E
:1009B000848701963E968830910599F708958115B0
:1009C0002CE5920741F42091140130911501232B5D
:1009D00011F490E080E0089590915A04803F59F41A
:1009E00080915B0487FF0DC010925B0491110BC0D6
:1009F0001092520408C0813F81F480915B04181664
:100A00009CF3992381F080915C0490915D04892B83
:100A100009F064C0109251040895823F49F497FF91
:100A2000F0CF10925A0480915B048111ECCFE0CF9B
:100A3000833F19F41916ACF3E4CF20915C04893F8D
:100A400029F41216F4F610925C04DBCF8A3F19F4F5
:100A500027FFD7CFF8CF20915D048B3F29F427FFE4
:100A6000D0CF10925D04CDCF8C3F19F41216CCF389
:100A7000C8CF843F31F4809159048E7F809359040C
:100A8000C0CF853F21F4809159048D7FF7CF863FF9
:100A900021F4809159048B7FF1CF873F21F480911D
:100AA0005904877FEBCF883F21F4809159048F7ED2
:100AB000E5CF8D3F31F4809153048E7F80935304B2
:100AC000A0CF8E3F21F4809153048D7FF7CF8F3FCD
:100AD00009F097CF809153048B7FF0CF08958091D8
:100AE000530480FD16C081FD16C082FD16C08091A2
:100AF00051048823A1F0883280F428E0829FC0014D
:100B0000112468E270E00E94D62C862F672B39F002
:100B1000089582E0089584E0089588E0089581E0D2
:100B200008958091530480FD14C081FD14C082FD9E
:100B300016C080915204882381F08E3180F420E524
:100B4000829FC00111246EE170E00E94D62C862F96
:100B5000089584E1089588E2089588E0089580E585
:100B60000895803F31F40E949105819580935B0444
:100B70000895813F19F40E949105F8CF823F31F426
:100B80000E949105819580935A040895833F19F43A
:100B90000E949105F8CF893F29F40E946F05809348
:100BA0005C0408958A3F21F40E946F058195F7CF78
:100BB0008B3F31F40E946F05819580935D04089509
:100BC0008C3F19F40E946F05F8CF843F31F4809177
:100BD00059048160809359040895853F21F48091E0
:100BE00059048260F7CF863F21F4809159048460D4
:100BF000F1CF873F21F4809159048860EBCF883F83
:100C000021F4809159048061E5CF8D3F31F48091CA
:100C1000530481608093530408958E3F21F48091A2
:100C200053048260F7CF8F3FB9F7809153048460FB
:100C3000F1CF80E0089590919A0592FF06C0282F89
:100C400028712830F9F4877F846093FF06C0282F2D
:100C500028712831F1F4877E846120919B0520FF63
:100C600006C0382F38713830D9F4877F816021FF72
:100C700006C0282F28712831D1F4877E816194FD28
:100C8000877E0895282F24712430F9F68B7F8860A1
:100C9000DCCF282F2471243101F78B7E8861DDCFD2
:100CA000382F3171313019F78E7F8860E0CF282FCF
:100CB0002171213121F78E7E8861E1CFCF93DF93BF
:100CC000EC0182389105B1F108F040C08133910503
:100CD00009F49DC048F58932910509F48DC08A97C1
:100CE00009F49CC0C11521E5D20708F0C3C0C115A5
:100CF00030E5D30708F01EC1C83ED10508F0A3C0F7
:100D0000C13ED10588F5C83AD10508F08EC0C53A74
:100D1000D10508F007C1C130D10531F1209721F18B
:100D2000C430D10508F545C08533910509F45FC08D
:100D3000C997C1F680919A05837009F043C18091EB
:100D40009B0583FF11C0C9E2D0E00EC0833E910530
:100D500099F170F4803E910501F1823E910511F602
:100D600080919A0582FD21C0CE01DF91CF91089537
:100D7000863E910561F1873E910571F1843E9105B2
:100D800009F0B0CF80919B0581FFEECF80919A054D
:100D9000C7EED0E084FD0DC0E7CF80919A0580FDBD
:100DA00033C090919B0590FFDFCFC3EED0E084FF6E
:100DB000DBCFD0E0C0E0D8CF80919A0582FDFFC0A4
:100DC00090919B0590FDFEC084FFCECFF2CF809125
:100DD0009A0583FDDDCFC8CF80919A0583FDF5C0CC
:100DE00090919B0591FFF0CFC4EED0E0BDCF8091F4
:100DF0009A0585FFB9CFA7CF80919A0585FDE8C0F8
:100E000080919B0583FFB0CFC9E3D0E0ADCF809147
:100E10009A0586FFA9CFCAE2D0E0A6CF80919A05B5
:100E200086FFA2CFC1E3D0E09FCFCF3BD10508F62C
:100E3000C85AD0E0CC0FDD1FCE5DDE4F0990D881BF
:100E4000C02DD46491CFC11540E2D40758F4C11528
:100E500081E0D80708F088CFC03FD10508F4A9CFBA
:100E6000D06582CFC11520E4D20708F4A2CFDF708D
:100E7000D06A7ACFC11535E5D30718F5C11544E519
:100E8000D40708F084C0C11583E5D80708F06BC00B
:100E9000C11522E5D20708F461C0CE0183709927FD
:100EA00021E030E002C0220F331F8A95E2F7C69599
:100EB000C69580E2C89FE0011124C22BD32BDC68C9
:100EC00053CFC11539E5D307A8F4C11548E5D407B8
:100ED00008F062C0C11586E5D80708F06ACF8C2FEC
:100EE0000E941B06C82FD0E0DC2FCC27CC27DF7157
:100EF000D0623ACFC1152AE5D20708F452C0CE011C
:100F000090568115904208F054CF8D2F8F710E941A
:100F10001B0690E0982F882788279F719C012C2B17
:100F2000E901E6CFC55AD0E0C15EDE4FC881D0E00E
:100F3000D0641ACFCE018370992721E030E002C03F
:100F4000220F331F8A95E2F7C695C69540E2C49FEB
:100F5000E0011124C22BD32BDD6806CFDC2FCC2778
:100F6000C16FD06A01CFCE018370992721E030E0B4
:100F700002C0220F331F8A95E2F7C695C69540E25C
:100F8000C49FE0011124C22BD32BDA68EDCEDC2FF5
:100F9000CC27C46FD06AE8CEDC2FCC27C06FD06AD4
:100FA000E3CE8C2F8F700E941B0634E0D695C79538
:100FB0003A95E1F7CF709C2FEC01D069D5CEC2EE07
:100FC000D0E0D2CEC0EED0E0CFCEC6EED0E0CCCED8
:100FD000C5E3D0E0C9CE80911202882331F010928F
:100FE00012021092110210921002089580959091B1
:100FF0008B05982390938B050895809590918C058F
:10100000982390938C0508951092EF011092EE01B1
:101010001092ED010895909116019923D1F09091CD
:101020009A0597FF16C0E82FE695E695E695EE310E
:10103000E0F4F0E0E857FE4F282F277081E090E0C1
:1010400001C0880F2A95EAF78095928189238283CF
:101050000895EAE8F1E09191891303C0DF01119747
:101060001C9291E0E039F907B1F7089590911601CB
:101070009923C1F090919A0597FF14C0E82FE69547
:10108000E695E695EE31F8F4F0E0E857FE4F87700C
:1010900021E030E001C0220F8A95EAF78281822B9D
:1010A00082830895AAE8B1E0EFEF90E02D918217D6
:1010B00051F0EF3F19F4211101C0E92F9F5F9630E5
:1010C000A9F7EF3F09F408950E2E000CFF0BE85727
:1010D000FE4FE6CF452B39F0682381E06F3F09F0E2
:1010E00080E08170089581E0FCCF8091EC019091C7
:1010F000BB01981301C008958F5F8770FACFA82FA6
:10110000A77023E0969587952A95E1F7FC01EE0FED
:10111000FF1FE80FF91FE60FF71F50E040E080E0E7
:10112000219130E00A2E02C0369527950A94E2F705
:1011300021703327042E01C0220F0A94EAF7822B74
:101140004F5F5F4F4330510559F70895282F892F7E
:10115000903F89F0911105C06FEA71E02B3030F0BB
:1011600008958C5F823038F46CEA71E0822F90E051
:101170000E947F08089580E0F3CF262F277091E02A
:1011800001C0990F2A95EAF723E0769567952A958D
:10119000E1F7FB01EE0FFF1FE60FF71FE40FF51F4E
:1011A00050E040E0682F70E08191DF0111979B01D2
:1011B000042E02C0369527950A94E2F721702195F6
:1011C0002827292328272C934F5F5F4F4330510551
:1011D00059F70895282F862F903F41F0911107C0AD
:1011E000622F70E04FEA51E02B3040F008959C5F91
:1011F0009230E0F7622F70E04CEA51E00E94BD08A7
:10120000F5CF9C013A9521153F4150F5FC01EE27A1
:10121000F170BC0166277270AC01442754709C01C8
:101220002227387094FF0EC080E1EF2B09F480E094
:10123000672B09F08062452B09F08064232B89F02D
:101240008068089581E0EF2B09F480E0672B09F0B6
:101250008260452B09F08460232B19F08860089583
:1012600080E0089580939C0570939E0560939D0592
:101270008091C4058430F9F48093E9008FEF909158
:10128000E800815095FD06C095ED9A95F1F70000B4
:101290008111F5CF8091E80085FF0DC050E040E05E
:1012A00063E070E08CE995E00E94D9028091E8004B
:1012B0008E778093E8000895BC0184E00E94320993
:1012C0000895BC0183E00E94320908959C0184E0E6
:1012D0008093E9009FEF8091E800915085FD06C062
:1012E00085ED8A95F1F700009111F5CF8091E80026
:1012F00085FF0CC050E040E066E070E0C9010E944C
:10130000D9028091E8008E778093E8000895CF930A
:10131000DF93EC01809116018823B1F180919A0549
:1013200087FF32C060E284E08093E9008FEF909104
:10133000E800815095FD06C095ED9A95F1F7000003
:101340008111F5CF8091E80085FF1BC080911601C7
:1013500070E050E040E0811104C050E040E068E0FF
:1013600070E0CE010E94D9028091E8008E778093D0
:10137000E80080E2FE01A2EAB5E001900D928A95B4
:10138000E1F7DF91CF91089568E081E0CDCF81E072
:101390008093E00080E28093D8001092C9008FE132
:1013A0009EE40197F1F700C0000087E090EBDC01BC
:1013B0008093CF059093D005A093D105B093D2052B
:1013C00088E19CE00FB6F894A895809360000FBE6A
:1013D00090936000FFCFB0E0A0E0E1EFF9E00C9463
:1013E000A92C6C017B0164E670E088E70E94A52BC4
:1013F000EC0197FD12C010E000E0F601E00FF11FD4
:10140000849164E670E00E94112CEC01892B29F490
:101410000F5F1F4F0E151F0581F70E94872CCE010D
:10142000CDB7DEB7E8E00C94C52C809173059091A0
:101430007405911103C091E089270895882369F00C
:1014400062E070E086E393E00E94EB09892B19F0DB
:101450008091730508951092730580917305EBCF09
:10146000CF93C0917305809174058823D1F00E94B9
:101470001104605A75418F4F9F4F60936F057093B1
:1014800070058093710590937205C11108C062E0E8
:1014900070E084E393E00E94EB09892B29F0C0916E
:1014A00073058C2FCF91089581E080937305F7CF5A
:1014B000CF93DF93C3E0D1E060E0CE010E94322DF4
:1014C0002196C11584E0D807B9F7DF91CF9108952F
:1014D0000F931F93CF93DF93142F022F823020F5A9
:1014E000623010F598E0899FE001112484E0689F44
:1014F000B0011124C60FD71FCD5ADF4F82E090E014
:10150000442311F090E080E0632F8C0F9D1F0E9418
:10151000322D83E090E0112311F081E090E0602F04
:101520008C0F9D1F0E94322DDF91CF911F910F9143
:1015300008951F93CF93DF93122F8230B8F4611177
:1015400015C04B3098F4C42FD0E0CC0FDD1F96E1CE
:10155000899FC00DD11D1124632FCE0187960E9453
:10156000322D612FCE0188960E94322DDF91CF91CE
:101570001F910895CF93C82F6FEF811164E883E224
:1015800090E00E94322D6FEFC11164ED84E290E093
:101590000E94322D6FEFC11169ED85E290E00E944B
:1015A000322DCF910895A4E1B0E0E9EDFAE00C947A
:1015B000A52CA0901401B090150181E090E09093CB
:1015C0001501809314018AED882E82E0982E92EF07
:1015D000C92E92E0D92E10E0760100E0F7012591A6
:1015E0003491402F60E0812F0E94990A82E0E80E3A
:1015F000F11C0F5F0B3091F7740100E0F7012591AA
:10160000349141E0602F812F0E94680AF7013296E1
:101610002591349140E0602F812F0E94680AE4E018
:10162000EE0EF11C013009F047C0F8E08F0E911C5E
:1016300086E1C80ED11C1130E9F51A8219821C828C
:101640001B821E821D8218861F8288EC90E09A877A
:10165000898703E610E04AE050E0B801CE01019628
:101660000E94562D065F1F4F033B1105A1F77E0117
:10167000EBE0EE0EF11C8AE0F70111928A95E9F792
:101680008FEF9FEF988B8F8787E08C8B4AE050E03D
:10169000B801C7010E94562D065F1F4F0330F1E0CD
:1016A0001F07A1F7B0921501A09214016496ECE017
:1016B0000C94C12C11E090CF01E0A0CF80E00E94FB
:1016C000BA0A60E086E290E00E94322D0E94D30ABE
:1016D0000E94580A81E00E94BA0A08959B0188304E
:1016E00070F49AE0899FB00111246D597F4F4AE050
:1016F00050E0C9010E94142D90E080E008958FEF22
:101700009FEF0895AAE0B0E0E8E8FBE00C94AF2C6E
:101710009C0137552F3F310509F068F4BE016F5F1A
:101720007F4F0E946E0B892B31F489859A852A960A
:10173000E2E00C94CB2C88EC90E0F9CFFF920F9371
:101740001F93CF93DF93F42E823070F5623060F5F3
:1017500028E0829F8001112434E0639FB0011124AE
:10176000060F171F0D5A1F4F82E090E0442311F01F
:1017700090E080E0800F911F0E94242DC82FD0E0C0
:10178000DC2FCC2783E090E0FF2011F081E090E097
:10179000800F911F0E94242D9E01282BC901CDB7D7
:1017A000DEB7E5E00C94C82C90E080E0F8CF0F9312
:1017B0001F93CF93DF93823008F561111FC04B3028
:1017C000E8F4042F10E0000F111F26E1829F000DA6
:1017D000111D1124C80187960E94242DC82FD0E026
:1017E000DC2FCC27C80188960E94242D9E01282B2F
:1017F000C901DF91CF911F910F91089590E080E092
:10180000F8CF20916D0530916E05232BC9F4703F00
:1018100039F4603FA9F480916B0590916C050895AF
:10182000823070F4711107C06B3050F4462F60E0C5
:101830000E94D70B08957D3F31F441E0623040F0C3
:1018400090E080E008957C3FD9F76230C8F740E02F
:101850000E949E0B0895CF92DF92FF920F931F93E9
:10186000CF93DF936C010091CE0580911302082B7A
:10187000C7E0D0E010E0FC2EC8010C2E02C0959508
:1018800087950A94E2F780FD0CC02197A0F7F12C10
:101890008F2DDF91CF911F910F91FF90DF90CF900F
:1018A0000895B6018C2F0E94010C0E945E060197DC
:1018B00061F3EECFCF93DF93EC010E942B0CBE01BE
:1018C0000E94010C0E945E06DF91CF9108950F9354
:1018D0001F93CF938C01FC014381548161818081EE
:1018E0000E946A08C82F811123C0F801808191816C
:1018F0000E945A0C92959F709630A9F058F4925F0E
:101900009F70923058F4803F19F030F4883E30F4E4
:10191000C1E004C09A5FF4CF843FD1F38C2FCF9104
:101920001F910F910895883E98F3813FB9F7F0CF4A
:10193000C0E0F4CFA5E0B0E0E0EAFCE00C94AE2C0F
:1019400025E0FC01DE01119601900D922A95E1F748
:10195000FC01228189819A81222399F0662389F0F2
:101960000E942B0C182F682F89819A810E94EA0807
:1019700069817A81812F0E94010C2596E3E00C9405
:10198000CA2C0E94A608182FF3CF83E290E00E9491
:10199000242D843889F484E290E00E94242D843D33
:1019A00059F485E290E00E94242D91E0893D09F0F0
:1019B00090E0892F8170089580E0FCCFCF9384E080
:1019C00090E00E94242DC82F82E290E00E94242DF6
:1019D000982F8C2FCF910895AAE0B0E0E2EFFCE0C1
:1019E0000C94A52C03EF14E081EEC82E84E0D82ED1
:1019F00093EBE92EF12C27E0922E30EEA32E34E06B
:101A0000B32E88248394D6010D931D936D014AE073
:101A100050E0B701CE0101960E94142DF8013896CE
:101A2000DF01892D1D928A95E9F789819A81D80174
:101A300011969C938E938F8112968C9312978D8121
:101A400013968C931397888514968C931497898595
:101A500015968C9315978B819C8117969C938E93EA
:101A6000169718961C9218978A8587FF3CC01E9679
:101A70001C921E921D9780FF03C0D80118968C926D
:101A800081FF04C0F80190859260908782FF07C0B3
:101A9000D80118969C911897946018969C9383FF90
:101AA00004C0F80190859860908784FF07C0D80132
:101AB00018969C911897906118969C9385FF04C086
:101AC000F801808580628087015F1F4FFAE0EF0E8A
:101AD000F11C83E0E81681E0F80609F094CF2A961D
:101AE000ECE00C94C12CF801B686A586C4CF68EE54
:101AF0007EEF90E080E00E94502D60E082E090E078
:101B00000E94322D60E083E090E00E94322D10921E
:101B1000130260E084E090E00E94322D64E082E2F3
:101B200090E00E94322D60E085E090E00E94322D2E
:101B300060E086E090E00E94322D6FEF87E090E059
:101B40000E94322D40E050E0BA0188E090E00E940F
:101B5000442D60E08DE090E00E94322D40E050E0A6
:101B6000BA0188E190E00E94442D60E087E190E0B6
:101B70000E94322D40E050E0BA018CE190E00E94DA
:101B8000442D70E060E080E290E00E94502D40E043
:101B900050E0BA0188E190E00E94442D80E00E946C
:101BA000BA0A0E945E0B40E050E0BA018FE090E07C
:101BB0000E94442D40E050E0BA0183E190E00E9491
:101BC000442D08951F920F920FB60F9211242F9358
:101BD0003F934F935F936F937F938F939F93AF93B5
:101BE000BF93EF93FF938091E10082FF09C0809142
:101BF000E20082FF05C08091E1008B7F8093E100CD
:101C00008091DA0080FF24C08091D80080FF20C03E
:101C10008091DA008E7F8093DA008091D90080FF76
:101C20009DC080E189BD82E189BD09B400FEFDCF80
:101C300081E08093C40580919F05811109C00E94B5
:101C400089020E9454038091E20084608093E20044
:101C50008091E10080FF17C08091E20080FF13C0F7
:101C60008091E2008E7F8093E2008091E2008061AB
:101C70008093E2008091D80080628093D80019BCE4
:101C800085E08093C4058091E10084FF2BC08091A2
:101C9000E20084FF27C080E189BD82E189BD89B56A
:101CA000982F917080FFFBCF8091D8008F7D80931B
:101CB000D8008091E1008F7E8093E1008091E20066
:101CC0008F7E8093E2008091E20081608093E20049
:101CD0008091C505882309F447C084E08093C4053A
:101CE0008091C4058091E10083FF27C08091E200CC
:101CF00083FF23C08091E100877F8093E10082E031
:101D00008093C4051092C5058091E1008E7F809379
:101D1000E1008091E2008E7F8093E2008091E200FA
:101D200080618093E20042E060E080E00E94220354
:101D30008091F00088608093F000FF91EF91BF9157
:101D4000AF919F918F917F916F915F914F913F9153
:101D50002F910F900FBE0F901F90189519BC1092E5
:101D6000C40510929F0574CF8091E30087FD93E036
:101D70009093C405B5CF78941F921FB61F9211247B
:101D80008F939F93AF93BF93809196059091970502
:101D9000A0919805B09199050196A11DB11D809360
:101DA000960590939705A0939805B0939905BF91D8
:101DB000AF919F918F911F901FBE1F9018959C010E
:101DC0004FB7F8948091960590919705A09198054A
:101DD000B09199054FBF821B930B08952FB7F894CC
:101DE0008091960590919705A0919805B0919905DD
:101DF0002FBF08950E94EE0E9C0190915A0480918D
:101E00005B04982B21F03093570420935604909153
:101E10005C0480915D04982B21F03093550420934D
:101E20005404E0919105F0919205309749F082E0D9
:101E3000809358040480F581E02D88E594E00995AD
:101E40000895A2E0B0E0E7E2FFE00C94AD2CE0E5FD
:101E5000F1E06BE571E041E050E010E000E021913D
:101E60002F3F91F0A22FA295AF70B0E090968C9189
:101E700090E02F7002C0959587952A95E2F780FD36
:101E800040C0CA01082B192B440F551F6E177F073E
:101E900031F71A83098342E050E0BE016F5F7F4F44
:101EA00087E192E00E94002D892B71F110931802B6
:101EB0000093170281E0809316020E94EE0E909329
:101EC00015028093140280911402909115020E94D1
:101ED000DF0E0597E8F042E050E067E172E08FE442
:101EE00094E00E94002D892BC1F0809117029091FF
:101EF00018029093500480934F0481E010921602D0
:101F000008C090E080E0BECF809116028111DBCF47
:101F100080E02296E4E00C94C92C80E0EFCFCF93D0
:101F200080918C0590918B05892B809388018091FD
:101F30001202882339F10E94EE0E20911002309196
:101F40001102821B930B8838934110F00E94EB071B
:101F50008091880190911202892B80938801809151
:101F60001601882309F447C080919A0587FF43C072
:101F70008EE1EAE8F1E090E0815008F03EC0911176
:101F80000E94EB07C0918105C09580918801C8230C
:101F900080918205C82BC093880140E250E060EF39
:101FA00071E088E891E00E94002D892B11F180E218
:101FB000E8E8F1E0A0EFB1E001900D928A95E1F739
:101FC000E0919105F0919205309799F0809116017A
:101FD000882349F080919A0587FF05C0C093890145
:101FE00086E0809388010280F381E02D88E891E00B
:101FF0000995CF91089586E0BCCF2191222309F461
:10200000BBCF9F5FB9CFCF93DF93EC01EA85FB8510
:10201000309719F06C857D8509958B810E94F607B4
:102020008C810E94FD070E948F0F86E0FE011192B5
:102030008A95E9F7DF91CF910895CF93DF93EC0173
:102040008D8181FD18C082608D8380918B059B817D
:10205000892B80938B0580918C059C81892B8093A3
:102060008C050E948F0FE885F985309721F06C85EB
:102070007D85CE01099510928E0510928D058D817A
:1020800080FD03C0CE010E940310DF91CF9108951F
:1020900090E080E00E94330490E080E00E941D0404
:1020A00010928B050E948F0F86E0E8E5F4E0DF01D7
:1020B0001D928A95E9F710925204109251041092E1
:1020C00053040E94FA0E08958093CE050E94481092
:1020D00008958091CE05982F9670963021F48860EF
:1020E0000E9464100895877FFBCF21E030E001C09B
:1020F000220F8A95EAF720958091CE0582230E94CF
:10210000641008959091EF01809589238093EF01E9
:10211000282F277091F4282F082E000C330B9217CC
:10212000130659F090919B0592FF07C08595859500
:1021300085950E9475100E9404080895CF93C09160
:102140009B05C2FB992790F9981791F080FBC2F983
:10215000C0939B0560919A0584E090E00E94322D27
:102160006C2F82E290E00E94322D82E00E94821069
:10217000CF91089521E030E001C0220F8A95EAF75F
:102180008091CE05822B0E946410089580931302E3
:102190000E944810089510928C0580911601EAE87B
:1021A000F1E0882361F080919A0587FF08C08EE1F5
:1021B000DF011D928A95E9F70E944810089586E094
:1021C000F7CFAAE2B0E0E7EEF0E10C94AE2C86EC9B
:1021D00095E02091F100DC012D93CD01B5E08E3C1E
:1021E0009B07B9F78091C705833009F472C0B8F432
:1021F000813009F449C0823009F4B3C08091E8000D
:1022000083FF96C28091C6059091C7059A3008F069
:102210008FC2E92FF0E0E059F24D0C94EA2C8A309D
:1022200009F48EC08B3009F471C0893039F7809180
:10223000C605813219F78091CA059091CB050097A8
:1022400011F00297D9F68091E800877F8093E8002B
:102250008091E80082FF38C09091F3008091F200F5
:10226000029731F48091F100813011F0863021F431
:102270008091F1008093A1058091E8008B77809395
:10228000E8000E940303BACF8091C605813A09F0A5
:10229000B5CF8091E800877F8093E8008091CA05E0
:1022A0009091CB05892B61F460E282EA95E070E0C1
:1022B0000E94AF038091E8008B778093E8009ECF67
:1022C00060E090E080E0F3CF8091C4058111C0CF41
:1022D00095CF8091C605813A09F090CF8091CA05CB
:1022E0009091CB05892B09F089CF8091E800877FF9
:1022F0008093E8008091E80080FFFCCF8091160178
:102300008093F1008091E8008E77B9CF8091C60567
:10231000813209F073CF8091CA059091CB05892B4A
:1023200009F06CCF8091E800877F8093E8000E94DD
:1023300003038091C805809316010E94CB105ECFE5
:102340008091C605813209F059CF8091E800877FDE
:102350008093E8000E9403038091C9058093A00543
:102360004DCF8091C605813A09F048CF8091E800B1
:10237000877F8093E8008091E80080FFFCCF809108
:10238000A005BECF803899F0823809F0D1C1809184
:10239000CA058F70873008F0CBC18093E900809127
:1023A000EB0085FB882780F91092E90006C0809138
:1023B000C2059091C305911182609091E800977FCA
:1023C0009093E8008093F1001092F1008091E80072
:1023D0008E77AAC1882309F498C1823009F0A8C178
:1023E0008091C80581119BC18091CA058F702FEF24
:1023F000280F263008F09CC18093E9002091EB0063
:1024000020FF8DC1933031F48091EB008062809386
:10241000EB0085C19091EB0090619093EB0021E07F
:1024200030E001C0220F8A95EAF72093EA0010926B
:10243000EA008091EB008860EACF811179C11091A8
:10244000C8051F778091E3008078812B8093E3009B
:102450008091E800877F8093E8000E9403038091C9
:10246000E80080FFFCCF8091E30080688093E30068
:1024700082E0111183E08093C4055AC180588230F4
:1024800008F056C12091C8053091C9052C3DE3E004
:102490003E07A1F583E08A838AE289834FB7F894E7
:1024A000DE01139620E03EE051E2E32FF0E050938E
:1024B0005700E49120FF03C0E295EF703F5FEF709B
:1024C0008E2F90E0EA30C0F0C7968D939D932F5FDA
:1024D000243159F74FBF8091E800877F8093E8004F
:1024E0006AE270E0CE0101960E94AF038091E8009D
:1024F0008B778093E8001CC1C096E7CF8091CA0516
:102500009091CB05432F55274330510509F44AC01C
:1025100078F54130510509F485C08BE590E0E8E39A
:10252000F3E04230510509F003C12091E800277F14
:102530002093E8002091CC053091CD0582179307B8
:1025400008F49C0140E02115310509F070C04111EB
:102550006EC08091E80082FDC9CF8091C4058823B8
:1025600029F2853019F28091E80083FFF2CFBECFC7
:102570004132510509F447C04232510509F0D8C033
:102580008330910508F0D4C0FC01EE0FFF1FE65820
:10259000FE4F0190F081E02D89589E4FDC018C9117
:1025A00090E01DC0332721303105E9F021153105B8
:1025B00079F022303105F9F02330310509F0B8C047
:1025C000E5EAF3E0E4918E2F90E0E5EAF3E007C05E
:1025D000E9EEF3E0E4918E2F90E0E9EEF3E000976E
:1025E00009F4A6C0A2CFE7EDF3E0E4918E2F90E0CE
:1025F000E7EDF3E0F4CFE3ECF3E0E4918E2F90E02D
:10260000E3ECF3E0ECCF8330910508F091C0880F44
:10261000991FFC01E058FE4F0190F081E02D89E008
:1026200090E083CF82E190E0E3E9F3E07ECF809118
:10263000C405882309F45ACF853009F457CF809117
:10264000E80083FD53CF8091E80082FD82CF809126
:10265000E80080FF78CF9091F3008091F20021157F
:10266000310519F08830910550F041E0089709F0E4
:1026700040E08091E8008E778093E80064CF449139
:102680004093F1003196215031090196E8CF80380E
:1026900009F04EC08091E800877F8093E800809128
:1026A000C5058093F10092CE811142C01091C805FA
:1026B0001230F0F58091E800877F8093E800109356
:1026C000C5050E940303112311F084E005C0809129
:1026D000E30087FDFACF81E08093C40542E061EC1E
:1026E00081E00E94220342E261EC84E00E94220326
:1026F00042E261EC82E00E94220342E260EC83E06D
:102700000E9422038091C40513C08091C8058130C6
:1027100079F481E0933009F080E08093C305109252
:10272000E9008091E800877F8093E8000E9403031E
:102730008091E80083FF0AC08091E800877F809342
:10274000E8008091EB0080628093EB00AA96E3E0C2
:102750000C94CA2C1F920F920FB60F9211242F9334
:102760003F934F935F936F937F938F939F93AF9319
:10277000BF93CF93DF93EF93FF93D091E900DF7086
:102780008091EC00C82FC17080FDC0E81092E90074
:102790008091F000877F8093F00078940E94E11090
:1027A0001092E9008091F00088608093F000CD2BBA
:1027B000CF70C093E900FF91EF91DF91CF91BF916E
:1027C000AF919F918F917F916F915F914F913F91C9
:1027D0002F910F900FBE0F901F9018950E94CB1055
:1027E0002FEF84E39CE0215080409040E1F700C04F
:1027F000000088E19CE00FB6F894A89580936000F3
:102800000FBE90936000FFCF882321F00E94F6074F
:102810000E948F0F0895882339F090918B05982B93
:1028200090938B050E948F0F0895882321F00E94BA
:10283000FD070E948F0F0895882339F090918C0531
:10284000982B90938C050E948F0F0895882309F48C
:1028500055C0823879F40E94490481FF4FC089E352
:102860000E9436080E948F0F89E30E940B080E9485
:102870008F0F0895833859F40E94490480FF3EC0A9
:1028800083E50E9436080E948F0F83E5EECF8438DF
:1028900059F40E94490482FF31C087E40E9436083F
:1028A0000E948F0F87E4E1CF9CEF980F913AE8F2F6
:1028B00090E2980F983050F4877091E001C0990F22
:1028C0008A95EAF7892F0E94FD07D1CF9BE5980FE3
:1028D000933028F490E080E00E943304089598E556
:1028E000980F973128F490E080E00E941D0408952D
:1028F000803F20F00E94EC040E94FA0E0895FF929F
:102900000F931F93CF93DF93F82E009186051091BC
:1029100087050115110509F449C01092850510922B
:1029200084051092810510928205D8011696CD91EA
:10293000DC919E013A9521153F4108F4D07ED1E00B
:10294000C11101C0D0E0D8011996ED91FC911A9700
:10295000309731F01B966D917C9180E00995D823DA
:10296000DD2339F08CEF8C0F813A30F58C2F0E94EB
:102970000B08FF2099F0E0918605F091870580858E
:1029800084FD0CC080918305882341F08081918172
:102990009C0121503109203B3D45A0F00E948F0F42
:1029A000109287051092860510928305C801CDB755
:1029B000DEB7E5E00C94C82C0E948F0F8C2F0E948C
:1029C0002614D7CF0E945604E9CFCF93C82F88236F
:1029D000C9F08238C9F40E94490481FD13C089E31B
:1029E0000E9436080E948F0F2FEF87EE93E0215050
:1029F00080409040E1F700C0000089E30E940B088E
:102A00000E948F0FCF9108958338A1F40E9449044A
:102A100080FDF8CF83E50E9436080E948F0F2FEFCC
:102A200081EE94E0215080409040E1F700C000002A
:102A300083E5E4CF8438A1F40E94490482FDE2CF0B
:102A400087E40E9436080E948F0F2FEF81EE94E0FA
:102A5000215080409040E1F700C0000087E4CECFD5
:102A60008CEF8C0F813A88F580911601882301F153
:102A700080919A0587FF1CC0EC2FE695E695E695B8
:102A8000F0E0E857FE4F828190E04C2F477021E044
:102A900030E002C0220F331F4A95E2F782239323CE
:102AA000892B79F08C2F0E940B080E948F0F09C090
:102AB000EAE8F1E08191C817A9F321E0E039F207D3
:102AC000C9F78C2F0E9436089BCF80E28C0F88308C
:102AD00068F4C77021E030E001C0220FCA95EAF720
:102AE00080918C05822B80938C058ACFEBE5EC0FCF
:102AF000E33040F4F0E0E15EFE4F808190E00E9420
:102B0000330480CFE8E5EC0FE73150F4F0E0EE0F4E
:102B1000FF1FEE5DFE4F808191810E941D0472CFE8
:102B2000C03F08F46FCF8C2F0E94B1050E94FA0EAF
:102B300069CF1F93CF93DF93182FD0E0C0E0893384
:102B400011F4C0E5D0E0812F0E94E514209739F4FC
:102B5000812F0E942614DF91CF911F9108958FE954
:102B60009FE00197F1F700C000002197EFCFB0E0A0
:102B7000A0E0EDEBF5E10C94A72CEC018AE0A82E87
:102B80002881222309F48FC02130C9F599818A81D7
:102B9000913021F422960E94991505C0923029F4B3
:102BA00022960E94E5142196EBCF933021F42296D1
:102BB0000E942614F8CF943011F02196F4CF22967B
:102BC00030E020E0AE014F5F5F4F8053990B8A30B9
:102BD000910550F02150310930F38FE99FE00197C2
:102BE000F1F700C00000F6CFA29EB001A39E700DC9
:102BF00011249C01260F371F8981EA01E3CFE22FC0
:102C0000F0E0E35EFB4FB490822F86958695869523
:102C100090E0FC01E35FFB4FE4902770F12C022E63
:102C200002C0F594E7940A94E2F731E0E322FF242E
:102C3000FC01E350FC4FC490D12C022E02C0D5946D
:102C4000C7940A94E2F731E0C322DD24FC01E3518A
:102C5000FC4F049110E002C0159507952A95E2F704
:102C600001701127E114F10419F081EE0E94E514BE
:102C7000C114D10419F086EE0E94E5148B2D0E9438
:102C80009915C114D10419F086EE0E942614E1149E
:102C9000F10419F081EE0E9426140115110509F4C2
:102CA00082CF8CE278CFCDB7DEB7EAE00C94C32CAC
:102CB000B0E0A0E0EEE5F6E10C94A92C6B01C42F86
:102CC000D22FFC0182818823A9F040938A050E94BB
:102CD000EE0E9093890580938805C77081E001C04E
:102CE000880FCA95EAF70E941C14CDB7DEB7E8E05A
:102CF0000C94C52C10918A05141337C08091880557
:102D0000909189050E94DF0E7C01C6010E94820B12
:102D1000E816F90650F5C0E2CD0F1D17C1F080E2AC
:102D2000810F883048F4177081E0012E01C0880FB0
:102D30000A94EAF70E941514C83048F481E09D2FE8
:102D4000977001C0880F9A95EAF70E941C14802F93
:102D50000E949915C83048F6D77081E001C0880FED
:102D6000DA95EAF70E941514C0CFC77081E001C060
:102D7000880FCA95EAF7F6CFCF93DF93EC010E9454
:102D800001099E01205E31092830310510F020979D
:102D900041F40E941C148C2F0E94E514DF91CF9106
:102DA00008950E940B14F7CF90919B0592FF10C0DD
:102DB00098E0899F90011124622B6093EF010E949B
:102DC000BA100E94EE0E9093EE018093ED010895EB
:102DD0000E94BA100895A7E1B0E0E1EFF6E10C948B
:102DE000AE2C4B8B5C8B6D8B7E8B8F8B611110921D
:102DF0008B051A8A198A85E0FE017396DE011D96FD
:102E000001900D928A95E1F780919B0582FF1CC08D
:102E10000E94EE0E2091ED013091EE01821B930B8A
:102E20008838934120F08091EF0182FF77C00E94A3
:102E3000EE0E2091100230911102821B930B883804
:102E4000934110F00E94EB0786E0FE013D96DE0103
:102E5000179601900D928A95E1F7CE0107960E9490
:102E60003421811111C086E0FE013796DE011196F2
:102E700001900D928A95E1F74A855B8568858F817F
:102E80000E946A08882359F016E08091EC01909125
:102E9000BB01891331C06796E3E00C94CA2C2091E2
:102EA000BB0130E0C9010196877099274091EC0180
:102EB0004817190699F096E0929FD001939FB00DA4
:102EC0001124A454BE4FFE01319601900D929A95A3
:102ED000E1F78093BB010E947508D6CF0E94CB100A
:102EE0001092BB011092EC0186E0E5EBF1E0DF010E
:102EF0001D928A95E9F7C8CF819FC001112484549F
:102F00009E4F0E943421882331F28091EC0190E0A1
:102F10000196877099278093EC01B7CF82E00E94D9
:102F2000821085CFA5E0B0E0E8E9F7E10C94AD2C84
:102F30008C0190936C0580936B05011580E2180756
:102F4000C0F4802F0E942614C8010E940109980134
:102F5000205E31092830310518F00115110531F4D2
:102F60000E9415142596E4E00C94C92C0E940414C8
:102F7000F9CF80EF89838A831B820E94EE0E8160E5
:102F8000782F9D838C8349815A816B818D810E942A
:102F9000EB16E8CF0F931F93CF93DF938C01EB01D8
:102FA00066E674E08C2F0E946E0B892B71F4DD278E
:102FB000C25ADB4F8881F801128218828330F1F007
:102FC00048F4813059F0823081F0DF91CF911F9128
:102FD0000F9108958430B9F08530B9F78091660477
:102FE00090916704009789F306C0809168049091DE
:102FF0006904009799F30E949217E7CF80916A04C1
:1030000090916B04F6CF80916C0490916D040097C1
:1030100091F7209166043091670480916804909143
:10302000690421153105F1F2009729F7C901E3CFB1
:10303000A5E0B0E0EEE1F8E10C94AF2C90936C05C4
:1030400080936B05811520E2920730F40E94BC1634
:103050002596E2E00C94CB2C80EF89838A8381E073
:103060008B830E94EE0E8160782F9D838C83498133
:103070005A816B818D810E94EB16EACFCF93DF934B
:10308000EC010E941818CE010E949217DF91CF9197
:1030900008950F931F93CF93DF938C01862F66E6DD
:1030A00074E00E946E0B892BB1F4C0916604D0913C
:1030B0006704209781F0F8018281833051F4CE01BA
:1030C0000E943E18CE010E943E18CE010E943E187A
:1030D00002C08430D0F7DF91CF911F910F910895F6
:1030E0000F931F93CF93DF938C01EB0166E674E09F
:1030F0008C2F0E946E0B892B09F05CC0FE01FF270C
:10310000D80112968C911297E25AFB4F8130B9F494
:1031100015969C9192FF02C080830AC090FFFCCF5D
:1031200082E0808380916804909169040097B9F4EB
:1031300080916604909167040097E1F110C082309D
:10314000B9F515968C9182FD28C080FD0BC083E0F7
:10315000808380916A0490916B04009701F10E9432
:10316000181828C084E0808380916C0490916D04CD
:103170000097A9F780916604909167040097F9F091
:103180000E943E188091680490916904009739F775
:103190008091660490916704E2CF85E080838091FE
:1031A000660490916704009729F00E943E18F0CFC2
:1031B00086E08083DF91CF911F910F9108958091D8
:1031C000680490916904B8CFA7E0B0E0EAEEF8E1B6
:1031D0000C949F2C7C01DC0113964D915C9114970B
:1031E00011966C9111978C910E946A088111ECC024
:1031F00061E0C7010E949A0C8C01F701828188234B
:10320000E1F080918D0590918E050097B1F008173F
:10321000190799F0FEE08F9FC0011124FC01EB58C3
:10322000FB4F20812460208380599B4FDC010D934C
:103230001C930E941D1010928B05F7018281882338
:1032400009F49DC6C80182519F45409708F08BC67E
:103250008FEF93E00E94242D8111A6C06EEED62E32
:10326000D00E03E011E0D11036C019821A821B8201
:103270001C8299249A9468012FEFC21AD20AC801BD
:103280000E94242D89831A82882309F48DC08130FD
:1032900009F07FC0580132E0A30EB11CC6010E94A4
:1032A000242DC82E8A83882309F47EC0C5010E947C
:1032B000242DD82E8FEF8C0D8330D8F4580143E0A5
:1032C000A40EB11CDB82DD2021F0CE0101960E940C
:1032D000B7158501D0CF0115F4E01F0709F464C0CC
:1032E000C8010E94242D811101C0DA940F5F1F4F85
:1032F000BACF8BEF8C0D833030F5C8010396DB829B
:103300005C01DD2031F3580154E0A50EB11C0E9490
:10331000242D8C838823E9F28B819C818130AFEF4F
:103320009A0710F0982F8827B6E0CB1631F0E7E027
:10333000CE1631F00E943E18CCCF0E941818C9CF8B
:103340000E949217C6CFF4E0CF12C3CF580124E0F9
:10335000A20EB11CC80103960E94242DDD2021F18C
:10336000882311F18150990B989E9001999E300D00
:1033700011244D2D4150550BCA01820F931F019707
:1033800008F4A7CFAFE9BFE01197F1F700C0000044
:10339000F6CFCE0101960E94B71556019ACF81E073
:1033A0000E94BA100E9469108091EF01877061F04D
:1033B000D70112968C91882339F080919B0582FF6A
:1033C00003C082E00E9482102796E2E10C94BB2C9D
:1033D00081E00E947510E6CF82E0FBCF823009F0D9
:1033E0000CC680916A0490916B04892B09F405C680
:1033F0002EE02C9DC0012D9D900D1124FC01EB5859
:10340000FB4F20812E7F208380599B4F0E941D10EF
:10341000F4C581E080930001C7CF8091000188232B
:1034200009F4D8C4480120EE821A91084090120293
:103430008091AB01482A80918C05482A38E0831698
:10344000910408F086C098012770332781E090E04E
:1034500001C0880F2A95EAF7552009F477C0482A59
:10346000D7018D919C910E94A60821E030E0F901DE
:1034700002C0EE0FFF1F8A95E2F7FF83EE832090D4
:103480008605309087056090A8017090A9011D8283
:103490002D81E22FF0E0EE0FFF1FEF51FB4FC080B8
:1034A000D180C114D10409F4F9C4411005C0D6017A
:1034B00012968C91811187C0F601838190E02E8154
:1034C0003F8182239323892B09F47DC08085982F27
:1034D000977009F487E038E08316910408F053C030
:1034E000552009F44CC086958170882309F46BC07F
:1034F000D601AD90BC900A151B0519F4552009F4AE
:1035000062C0C214D30409F45EC0D6011D96ED91C9
:10351000FC91309721F08081882309F454C0642DF8
:10352000C6010E94A704882309F44DC00A151B0593
:1035300009F0BFC50115110509F4C0C55110C0C57A
:10354000A614B70409F03FC0512CBAC58095482293
:1035500087CF552009F48BC41093A9010093A801CB
:103560000E94110460937D0570937E0580937F0512
:1035700090938005109285051092840571CF82FB8F
:10358000882780F9B2CF5520F1F08170AECF0E942C
:103590002614B5C50497813A910548F48A2D0E94F6
:1035A0003608552009F416C40E948F0FFDCE0E94E4
:1035B0008F0F8FE39CE90197F1F700C000008A2D7F
:1035C0000E94E514EECF9D819F5F9D8361CFFC013A
:1035D000208131810217130709F0F5C35110F5C39B
:1035E0001092830580E00E947F14F4C3902F812FF6
:1035F00039C4F901858181FF65C4C9010E940310A6
:1036000061C407E225EE45EE68ED7CE52FC506E2D4
:1036100021EE40EE63EF7CE529C507E225EE44EE9E
:1036200064EF7CE523C506E221EE42EE65EF7CE522
:103630001DC508E221E045EE69ED7CE517C5053AB8
:10364000FDE51F0709F455C4C0F401363DE5130735
:1036500009F44FC406314CE5140709F084C5809184
:103660008C058A7A91E009F490E09093AA01811187
:1036700023C189E20E94360897CFC8018D5A9D4523
:10368000039740F736C480919A05806207303CE585
:103690001307B9F180919A05806108304CE5140751
:1036A00080F180919A0580642CC00D305CE515078F
:1036B00009F4C0C090F480919A058E7F0B309CE590
:1036C0001907F9F080919A058C600C30ACE51A0767
:1036D000C0F080919A058D7F14C00F30BCE51B07A8
:1036E00009F4B8C008F4AAC00031FCE51F0709F4CA
:1036F000B5C080919A058F7B01312CE5120709F046
:1037000022C480939A051FC40F3F3CE5130709F4B8
:10371000B3C0A8F50A3F5CE5150709F479C0C0F409
:1037200004319CE5190709F4B5C008F4A1C00531BE
:10373000BCE51B0709F007C480919A0582FB992715
:1037400090F921E0922790FB82F990FB83F9D9CF81
:103750000C3FECE51E0709F475C008F45DC00D3F91
:103760002CE5120709F472C080919B0583600E3F1F
:103770003CE5130709F0E7C380939B05E4C30136DA
:103780004DE5140709F491C090F401308DE5180758
:1037900009F489C008F474C060E00230ADE51A078E
:1037A00009F0D1C38EE090E00E94322DCCC30D3AD7
:1037B000BDE51B07E9F060F490919A05892F8E7F93
:1037C00090FF8160053AFDE51F0709F49ACFBBC35E
:1037D0000E3A2DE5120751F10F3A3DE5130709F0B6
:1037E000B2C390919B05892F877F93FF8860C4CFD8
:1037F00080919B058860C0CF80919A05826081CFBF
:1038000080919A0584607DCF80919A05886079CFF8
:1038100080919B058160B0CF80919B058260ACCF89
:103820000E94CB1080919A0580686BCF80919B0598
:10383000877FA2CF80919A058B7F63CF80919A0575
:10384000877F5FCF80919B058E7F96CF80919B0570
:103850008D7F92CF80919A058F7E53CF80919A056C
:103860008F7D4FCF0E94CB1080919A058F7749CFE3
:1038700080919A05837F45CF80919B058C7F7CCF7B
:1038800080919B05982F909591708E7F892B90FB4E
:1038900081F972CF0E94CB1090919A05892F97FBE6
:1038A00087F980582ECF61E07DCF90919A05892FBE
:1038B0008F7E94FF806125CF85E3DCCE85E3F6C360
:1038C0000E94CB105FEF84E39CE051508040904019
:1038D000E1F700C000000E94C70980919B0582FBB0
:1038E000882780F991E089270E949E10F701828144
:1038F00000811181882309F448C0C8010E942B0C63
:10390000D82E682FC8010E94EA08B8018D2D0E94A8
:10391000010C0E945E068C01882ED7011296CC9075
:1039200012971596BC90B2943FE0B3228091EF01BC
:103930008770C1F0AC2CCC20B1F0812F807F803417
:1039400021F080E2800F883068F080919B0582FF33
:1039500009C082E00E9482108091EF018770AA2442
:10396000A3948111A12C912E92942FE09222BBE07E
:10397000B91508F471C0E92DF0E0E658F24D0C9449
:10398000EA2C81E0B1CF80E0AFCFC8010E94A60849
:10399000D82EBBCFE12FEF70DE2E107F19F0D2941E
:1039A00090EFD922CC20B9F0DD2069F080E2800FC1
:1039B000883010F0811009C080918C05D82AD092EF
:1039C0008C050E948F0F802F45C080918B05D82ACF
:1039D000D0928B05F6CF802F0E942614DD20E1F1D6
:1039E000005E8D2D083010F0811003C00E94FD078D
:1039F00002C00E94F6070E948F0F2EC0F12FFF70A9
:103A0000DF2E107F103219F0D29480EFD822882058
:103A100089F021E0821609F494C0CC2009F49DC0FD
:103A2000BB2009F46AC0F701858180FFCCCF8F707D
:103A3000858363C080919B0582FD38C0CC2079F1DD
:103A4000DD2039F080918C05D82AD0928C050E9417
:103A50008F0F80E00E94E514A92DA850BB0B14978E
:103A600010F40E944904AA20A9F08091EF0180FD82
:103A700011C0F70112828595859585950E94BA102F
:103A8000C7010E94E4188091EF0185958595859581
:103A90000E94751060E0C7010E949A0C95CC80E0EE
:103AA0000E942614DD20C1F28D2DA0CFCC2049F13B
:103AB000B11004C0809112028D2920C031E0B312F0
:103AC00010C082FFC9CF80911202D82AD81621F2E5
:103AD0000E94EE0E9093110280931002D092120277
:103AE000BBCF45E0B412E6CF0E94EB079091AB014B
:103AF0008D2D892B89138093AB018D2D0E941C1471
:103B0000ABCFB11003C00E94EB0712C051E0B51259
:103B100013C080918C058D2109F49ECF0E94EB0784
:103B20009091AB018D2D8095892389138093AB01F2
:103B30008D2D0E94151490CF85E0B81609F48CCF16
:103B4000E2CFCC2029F095E09B1508F485CFD5CFA6
:103B5000A4E0AB1508F480CFEBCFBB2049F3F9E329
:103B60008F1209C02FEF37EE43E021503040404024
:103B7000E1F700C00000802F0E9426146DCF812F36
:103B800086958695837061F0813009F065CFC80114
:103B90009370C11002C090E080E00E941D045CCFD1
:103BA000C8019370C11002C090E080E00E9433040D
:103BB00053CF802FCC2029F00E94B1050E94FA0E2D
:103BC0004BCF0E94EC04FACF812F837089F5C1108E
:103BD00043CF402F429546954770440F440F802FA6
:103BE0008F70042E01C0880F0A94EAF7202F2071ED
:103BF00004FF07C02FE030E001C0220F4A95EAF72A
:103C00002095169516951370123069F050F4309186
:103C10001302113029F0822B83230E94C6101CCF7F
:103C2000832B822BFACF282B809113028227F5CF8A
:103C30008695CC2011F0812F8170882309F40CCF58
:103C4000402F429546954770440F440F802F8F7048
:103C5000042E01C0880F0A94EAF7202F207104FF78
:103C600007C02FE030E001C0220F4A95EAF7209507
:103C7000169516951370123069F050F43091CE05F8
:103C8000113029F0822B83230E946410E5CE832B10
:103C9000822BFACF282B8091CE058227F5CF1F707B
:103CA000CC2029F0812F0E94BA10802F27CF802F9F
:103CB0000E941514812F0E947510CECE802F52EFD6
:103CC0008516B1F1581570F090EF8916D1F0A1EF7B
:103CD0008A1691F0CC2009F466C0B11074CE812F01
:103CE0008F712AC0B3EF8B1651F1E4EF8E12F2CF31
:103CF00080919B0582FD2FC0812F8F71CC20D9F23E
:103D00001BC0CC2081F0F4E0FB1508F4A5CE1F7198
:103D100081E090E0012E01C0880F0A94EAF79091AB
:103D2000CE058927B1CF25E02B1508F495CEEFCF2E
:103D3000812F8F71C110BFCF0E94BA108DCE80E04D
:103D4000CC2009F4A1CF1F7181E0012E01C0880FA2
:103D50000A94EAF799CFCC20C9F08091EF018770DF
:103D6000843041F40E940408812F8F710E947510E5
:103D7000A12C72CE34E03B15D8F31F71812F0E9425
:103D8000BA1063E0812F0E94D416F2CF44E04B15A5
:103D900030F40E94040864E0812F8F71F4CF81E039
:103DA0000E948210E5CFBB2059F0893309F0E3CEA1
:103DB0005FEF87EE93E0515080409040E1F7D9CE1D
:103DC000812F8F7178CF552029F0DC0118968C91C6
:103DD00085FF08CCC80197558F3F910511F008F079
:103DE0002BC15801BB24BEE00B9FF00111249F01A1
:103DF00020593B4F6901D70112968C91EB58FB4F2C
:103E0000908180FB90F99083882309F4F2CB0E9483
:103E1000EE0E90931F0280931E02F60182818F5F47
:103E2000828380918B0590918C05892B838380916F
:103E3000120284830680F781E02D309731F0D6019D
:103E40001C966D917C91C60109958EE08A9DF001CA
:103E50008B9DF00D1124E059FB4F858181FFC6CB6E
:103E600090E080E090938D0580938E052BC080912B
:103E7000A8019091A9010817190781F41092A901CE
:103E80001092A80110927D0510927E0510927F0578
:103E90001092800510928505109284058091860508
:103EA00090918705009709F495CFA8E08A169104B0
:103EB00008F08DCB642D0E94A704811103C081E01E
:103EC0000E947F14D70112968C91882309F4E4C0D4
:103ED00010928A050330BDE51B0708F0B0CB0A3FFE
:103EE000ECE51E0730F4C80182509C45449708F069
:103EF000B1CB0E94DE0C90939B0580939A05023112
:103F00004CE5140709F4AECC08F0FECB09308CE583
:103F1000180709F485CC08F0C8CB0530ACE51A07C2
:103F200009F472CC08F0AFCB0330ECE51E0709F4BE
:103F300063CC08F065CC80919A05816002302CE555
:103F4000120709F4DECB60919A0510919B0584E07D
:103F500090E00E94322D612F82E290E00E94322D8B
:103F60000E94CB1021CA0031BFE51B0709F417CA14
:103F70000131EFE51E0709F040C082E011CA0031AF
:103F8000FFE51F0709F424CA01312FE5120709F4E0
:103F900023CA6801E7E5DE1AFFEFCF16D10409F066
:103FA00060F566E674E08C2D0E946E0B892B29F576
:103FB0008EE08C9DF0018D9DF00D1124E059FB4F9A
:103FC0008281813009F00ACA809166049091670469
:103FD000892B99F08091680490916904892B69F08C
:103FE00080916A0490916B0420916C0430916D046F
:103FF000822B932B892B09F4FBC9D70112965C9075
:10400000552009F40ACA0F35BDE51B0709F401CA9A
:104010000036EDE51E0751F00E35FDE51F0709F0EE
:10402000FCC980910001882309F4F3C910920001B2
:1040300080E00E947F14B8C9033F3CE5130709F4F0
:10404000E6CAC0F4083D5CE5150709F4DACA093D83
:104050008CE5180709F4EDCA073D9CE5190709F03E
:1040600031CF06E221EE41EE67ED7CE5C7010E940B
:1040700058169AC9053FACE51A0709F4D4CA08F4E2
:10408000CCCA063FECE51E0709F01CCF07E225EE7F
:1040900046EE66EF7CE5EACF0631FCE51F0709F046
:1040A00025CC8091AA01811109CC89E20E940B08DC
:1040B0007BCAA114B10409F043CA512CB12CA12C24
:1040C00080E00E947F14D0928705C092860581E02F
:1040D00080938305D60115968C91809381055110AC
:1040E0000EC0AB2861F0F601808191819C012450C3
:1040F0003109213A310508F04ACA0E940B08D6015D
:104100001696AD90BC90C5019A9581159F4110F40B
:10411000E0EEBE2277247394C5010197803B9D4554
:1041200008F0712CD6011996ED91FC911A973097F1
:1041300031F01B966D917C9181E009957822772072
:1041400079F0F601868197810E94010980938205AA
:10415000C501F8E08F16910408F01CCA0E945604AD
:104160000E948F0F1ECA0A352DE5120709F409CCEB
:1041700068F401154CE5140709F4A2CB0E3D1C456B
:1041800009F0B4CB0E94770D0E94EE130C358DE53B
:10419000180709F4A2CB08F4F6CB073A1D45A1F3A2
:1041A000A5CBB0E0A0E0E7EDF0E20C94A82C809164
:1041B000BA01807F09F050C08091B701882309F4CB
:1041C0004BC0C091EC0186E0B82E8091BB018C17EA
:1041D00009F442C0F090B501E090B601C090B8017A
:1041E000D090B901A6016E2D8F2D0E946A08D0E0F3
:1041F000811137C0BC9E8001BD9E100D1124F801B5
:10420000E454FE4F81818E112CC080818F1129C012
:104210008281811126C0E380F480EC18FD0860E003
:1042200085EB91E00E949A0C0E94820BE816F90639
:10423000C0F48091BA018F7080618093BA01F80157
:10424000EF53FE4F80818F708061808385EB91E01A
:104250000E94E4180E947508CDB7DEB7E9E00C941F
:10426000C42C2196C770B1CFA1E1B0E0EAE3F1E23E
:104270000C94A12C8C0185E0F801DE011D960190C3
:104280000D928A95E1F7F801E28085EBA82E81E096
:10429000B82E8090B8019090B901A4016091B60148
:1042A0008091B5010E946A08682E81116EC1F801E3
:1042B000C380D480F090B701C601881999094C01D8
:1042C000FF2009F41EC14080518060E0C5010E94BA
:1042D0009A0C0E94820B7090BA018816990608F019
:1042E000C9C04091B8015091B901B090B501A090FA
:1042F000B601872D807F6A2D09F077C08B2D0E9433
:104300006A08FE2C81111BC0F80181818A1117C037
:1043100080818B1114C0E11012C0872D8F708061D5
:104320008093BA0185EB91E00E94E4188091BA0174
:10433000F80185838F2D6196E0E10C94BD2CA601D8
:10434000652D842D0E946A08811123C081E08E258D
:10435000F82FF170DF2E80FF3EC08091EC0120919C
:10436000BB0136E0821317C04D865E868D859E8523
:104370000E945A0C292F22952F70223000F12430F0
:1043800028F59F7001F1F8019581907FE1F4F62CFA
:10439000D1CF80E0DDCF90E0389FF001399FF00D64
:1043A0001124E454FE4F4181541206C0408144124E
:1043B00003C04281E4120FC001968770D3CF9F7073
:1043C00011F0882321F3805E883008F3C8010E9431
:1043D000E4186D2CDCCFEE2009F4ACCF8091BA014B
:1043E00081608093BA01F12CA5CF8B2D0E946A08C1
:1043F000811116C0F80181818A1112C080818B1150
:104400000FC0E1100DC07582C8010E94E41886E05B
:10441000F801A5EBB1E001900D928A95E1F78ACF02
:10442000C8010E94670C882309F1EE20F9F0809101
:10443000BA01803270F02091B5013091B601388711
:104440002F831986DB86CA868C87CE0107960E9449
:10445000E41886E0F801A5EBB1E001900D928A9591
:10446000E1F70E94D120FF24F39464CFC8010E9499
:10447000E418F9CF872D807F51F485EB91E00E94FD
:10448000E41886E0F50111928A95E9F7ACCF909097
:10449000B5018090B6014091B8015091B901682DE5
:1044A000892D0E946A08811113C0F8018181881149
:1044B0000FC0808189110CC0E1100AC07582C8014B
:1044C0000E94E41886E0F50111928A95E9F732CF4F
:1044D000C8010E94670C882349F2EE2039F28091CE
:1044E000BA01803208F4B5CF2091B5013091B60100
:1044F0003A8329831B82DD82CC828E83CE01019692
:10450000A6CF60E085EB91E00E949A0C0E94820B9E
:1045100088169906B8F6FE2CEE2009F4A7CFE09095
:10452000B501D090B6014091B8015091B9016D2DFF
:104530008E2D0E946A0881111AC0F80181818D11A7
:1045400016C080818E1113C08091BA0180FD5FCFAB
:10455000982F907F09F45BCF8583903F09F454CF67
:10456000982F907F905F8F70892B85834DCFC801E6
:104570000E94670C81116DCF8091BA018160809398
:10458000BA01C8010E94E418D5CEEE2009F46ECF1E
:10459000C8010E94670CF82E882309F467CF86E0D3
:1045A000F801A5EBB1E001900D928A95E1F78091B9
:1045B000B5019091B6010E945A0C0E94D120BACE4A
:1045C0001F921FB61F9211248F939F93AF93BF9397
:1045D00080919505811113C0809196059091970562
:1045E000A0919805B09199054196A11DB11D8093A8
:1045F000960590939705A0939805B0939905BF9160
:10460000AF919F918F911F901FBE1F901895CDB7AE
:10461000DEB7CC54D1090FB6F894DEBF0FBECDBFC4
:1046200085B7806885BF85B7806885BF84B7877F79
:1046300084BF0FB6F894A89580916000886180933C
:104640006000109260000FBE80E890E00FB6F89412
:1046500080936100909361000FBE89E196E0909392
:104660008701809386010E94C7040E94EC0C0E947F
:1046700089020E9454038091E20084608093E200EA
:1046800078948091C4058823A1F01091E9001F70EF
:104690009091EC00892F817090FD80E8182B10928A
:1046A000E9008091E80083FD0E94E1101F701093E3
:1046B000E90082E084BD93E095BD9AEF97BD8093B9
:1046C0006E000E94C50C811102C00E945E0BA0E525
:1046D000B1E06BE571E041E050E08D918F3F91F0EA
:1046E000E82FE295EF70F0E011A18F709A0101C000
:1046F000220F8A95EAF7922F9095912391A382A198
:10470000822B82A36A177B0741F710925004109204
:104710004F04109218021092170290E080E00E945D
:104720002C2D883E9E4F21F40E94C50C811102C0A1
:104730000E94770D82E090E00E94242D80931B025E
:104740000E94DE0C90939B0580939A050E94210F96
:104750008FE39CE90197F1F700C000000E94210F50
:1047600080914F0480FF08C06FEF7FEF90E080E002
:104770000E94502D0E94C70983E090E00E94242DE2
:104780000E94C6101092480480E8809327020E947D
:104790009F2B6DE070E08DED91E00E94EB09892B7D
:1047A000C9F58091480463E070E081FD3BC18AED6A
:1047B00091E00E94EB09892B69F56DE070E08AECCD
:1047C00091E00E94EB09892B29F50E941104605A9F
:1047D00075418F4F9F4F60936F0570937005809365
:1047E000710590937205E8E4F2E080E092E0DF0169
:1047F0009C011D9221503040E1F78FEF9FEF909385
:104800004B0480934A0481E0809374058093730580
:104810001092490482E0809324024DE651E02BE699
:10482000822E21E0922E3FE6E32E31E0F32E84012A
:104830009A0161E070E0D9018D919D01E82FE29528
:10484000EF70F0E0B1A08F706B0101C0CC0C8A95C5
:10485000EAF79C2D90959B2191A382A18C2982A39C
:10486000F80181918F01E82FE295EF70F0E0B1A09F
:104870008F706B0101C0CC0C8A95EAF79C2D909546
:104880009B2191A382A18C2982A3EA16FB0699F6AB
:104890008FE891E00197F1F700C000001091240229
:1048A00065E272E0FB018E2F861B811708F4BDC004
:1048B00081E091E090939205809391058091C405E9
:1048C00000E112E1853009F410C10E94210FC0906F
:1048D0001C02D0901D02E0904F04F0905004CE14C2
:1048E000DF0409F00CC10E94EE0E8C0180911902C8
:1048F00090911A020817190701F18FEF8FAF2196D7
:104900008FAF219722961FAE22970E94EE0E8160F4
:10491000782F24969FAF8EAF24974FAD21965FAD31
:10492000219722966FAD229724968FAD24970E94EF
:10493000EB1610931A02009319028091840590914E
:104940008505892B09F43EC04091790550917A057F
:1049500060917B0570917C052FB7F8948091960546
:1049600090919705A0919805B09199052FBF841B50
:10497000950BA60BB70B409175055091760560918C
:1049800077057091780584179507A607B707D0F0CB
:1049900080918405909185050E94BC161092850532
:1049A000109284051092790510927A0510927B0579
:1049B00010927C051092750510927605109277057D
:1049C00010927805A0908D05B0908E05A114B104C9
:1049D000E9F080911E0290911F020E94DF0E8C016F
:1049E000C5010E94820B8017910780F480918D058C
:1049F0004EE0849FC0011124FC01EB58FB4F208145
:104A000022FD04C080599B4F0E941D10A12CB12C87
:104A1000B4E08B2E912C1DEF512E442443940CEFC7
:104A2000302E62C187ED91E0C4CEDA012D91AD0147
:104A3000822F82958F7090E0DC0190968C9190E0AF
:104A40002F7002C0959587952A95E2F78170D40161
:104A50009D914D01292F22952F7030E0D90190961C
:104A60002C9130E09F7002C0359527959A95E2F71A
:104A700090E020FD92E0892B819315CF8091C405B1
:104A8000843031F10E94150A10929505E8E1F0E0BA
:104A900020E40FB6F894A895E09360000FBE209331
:104AA000600083B7817F846083BF83B7816083BFE9
:104AB0007894889583B78E7F83BF0FB6F894A895B6
:104AC00080916000886180936000109260000FBE4A
:104AD0008091C305882349F00E94210F80914F04E3
:104AE00090915004892B09F001C68091C40585304E
:104AF00009F4C4CF0E94CB100E944904E6CE86017F
:104B00000E251F25912CAA24A394B12CC8018A211B
:104B10009B21892B31F125969FAE259726961FAEB6
:104B2000269721E0C7018A219B21892B09F420E0E7
:104B300027962FAF27970E94EE0E8160782F299637
:104B40009FAF8EAF299725964FAD259726965FADDF
:104B5000269727966FAD279729968FAD29970E94A4
:104B6000EB169394AA0CBB1C3BE09312CFCFF092B0
:104B70001D02E0921C020E941104DFCE6A2C712CEF
:104B8000F301E359FE4F8081E82FE295EF70F0E0EA
:104B9000E0A1F0E08F7002C0F595E7958A95E2F705
:104BA000E170D301A559BE4F2C91A22FA295AF70F1
:104BB000B0E090968C9190E02F7002C0959587950B
:104BC0002A95E2F780FDE2C180E08E2BD301AB5D38
:104BD000BD4FEC919E2F9370891709F484C0EE0F9E
:104BE000EE0FE82BEC93EF70F0E0E55AFE4F8301F7
:104BF0000E5D1D4F8081D8019C91890F8C9320E020
:104C000084308CF1F301E05EFD4F80818F5F808303
:104C10000E94EE0EADAA3EAA4FAA8160782F99AFEE
:104C200088AF4A2D5CEF61E089AD0E94EB16EFE39F
:104C3000FFE13197F1F700C000000E94EE0EAAAE2E
:104C40003BAE1CAE8160782F9EAF8DAF4A2D5CEFDE
:104C500060E08EAD0E94EB168FE39FE10197F1F7C4
:104C600000C0000021E0D8018C918D3F8CF5F3014C
:104C7000E05EFD4F8081815080830E94EE0EABA6E6
:104C80005CA64DA68160782F9FA78EA74A2D5DEF69
:104C900061E08FA50E94EB16EFE3FFE13197F1F79A
:104CA00000C000000E94EE0EA8AA59AA1AAA8160AC
:104CB000782F9CAB8BAB4A2D5DEF60E08CA90E94F6
:104CC000EB168FE39FE10197F1F700C0000021E0B0
:104CD000D8018C91082E000C990BB4010E94D62C9F
:104CE000F8018083B22AA39480912402A81608F4C4
:104CF00045CFB1100E94110480917405882339F1C9
:104D000020914A0430914B042115310539F08091EE
:104D1000490461E070E0882309F43BC18091730588
:104D20008823A9F00E94110400916F05109170056D
:104D30002091710530917205601B710B820B930BF2
:104D40006F3F7F4F8F4F9F4710F40E94150ACE147C
:104D5000DF0409F4B1100E94300A86E0E8E5F4E0CF
:104D60008E010F5F1F4FD80101900D928A95E1F7D8
:104D700010925A0410925B0410925C0410925D042D
:104D80008B819C81892B09F44AC0809156049091B3
:104D900057040E94DF0E9C0190915204992309F45C
:104DA000C9C425313105D8F19F3F19F09F5F909319
:104DB0005204FB80FF2059F00E9491059FEF1F14C1
:104DC0000CF491E0899F802D112480935A04FC807B
:104DD000FF2059F00E9491059FEF1F140CF491E001
:104DE000899F802D112480935B0430915A043323D2
:104DF000B1F020915B04222391F045EB3403C00114
:104E00001124992309F49DC190935A0445EB24037E
:104E100090011124332309F498C130935B048D81F0
:104E20009E81892B09F44AC08091540490915504C5
:104E30000E94DF0E9C0190915104992309F475C4DE
:104E400021353105D8F19F3F19F09F5F90935104B0
:104E5000FD80FF2059F00E946F059FEF1F140CF496
:104E600091E0899F802D112480935C04FE80FF20B7
:104E700059F00E946F059FEF1F140CF491E0899F79
:104E8000802D112480935D0430915C043323B1F0B4
:104E900020915D04222391F045EB3403C0011124DD
:104EA000992309F456C190935C0445EB24039001C7
:104EB0001124332309F451C130935D0446E050E0DE
:104EC000B80188E594E00E94002D892B61F480915F
:104ED0005A0490915B04892B90915C04892B9091EA
:104EE0005D04892B11F00E94FA0E86E0F801A8E516
:104EF000B4E001900D928A95E1F70E9449049091E7
:104F00004C04891721F080934C040E941104809175
:104F1000C405843009F0D2CC83E08093E90080910D
:104F2000E80082FFCBCC8091E80090E085FF0AC0CA
:104F30000E94A80240E2E42EF12C6801882309F4C3
:104F40001AC191E08091E8008B778093E800992363
:104F500009F4B4CCE0906D05F0906E058981E11400
:104F6000F10409F416C18E3F09F056C18A818330DD
:104F700020F08550833008F04FC1EA81EE3008F010
:104F80004BC1F0E0EA57F24D0C94EA2C82E01DCEC2
:104F90008F5F482E512C1B01082E02C0220C331C9F
:104FA0000A94E2F7A90142215321452B89F39091FC
:104FB000480490FD44C08295880F807680930F014D
:104FC0009201369527953695279520931201815E9B
:104FD000809310011092130124E630E047E050E086
:104FE0006DE071E088E70E943F2C892B09F096CE96
:104FF000F5E0440C551CFA95E1F78091480480FDDA
:105000002CC0A201485B5D4F04E610E020E230E0D6
:1050100060E488E70E94602C892B09F07FCE0E9413
:10502000300AC1018095909520904A0430904B043D
:105030002822392230924B0420924A046FCE880FE6
:10504000880F880F80930F0110921201895F80935F
:10505000100183E080931301BFCFE8E2F2E080E229
:10506000DF011D928A95E9F7E3E7F1E02D96FFAFA6
:10507000EEAF2D976FE671E0E7E78E2EE1E09E2E12
:105080002D96AEADBFAD2D974D912D96BFAFAEAF66
:105090002D97FB018191BF01840D952D911D9C01E0
:1050A000285B3D4F2B963FAF2EAF2B97E42FF0E0C0
:1050B000E85DFD4F30E020E057E0652E621AAA243B
:1050C000A394022E01C0AA0C0A94EAF72B960EAD07
:1050D0001FAD2B9790E0D8018D918D018A21462D2F
:1050E000491B4770742E042E000C550BB82F01C0BD
:1050F000BB0F7A94EAF77B2E519541955109477081
:10510000552701C086954A95EAF7782A8081782A42
:1051100070829F5F9830F9F62F5F3F4F31962830AD
:10512000310551F62D96EEADFFAD2D978E169F06EB
:1051300009F0A6CF04E610E020E230E048E252E0B9
:1051400067CF81E080935A0461CE81E080935B0455
:1051500066CE81E080935C04A8CE81E080935D04FC
:10516000ADCE8091F100D6018D936D01B1E0EB1AC7
:10517000F10809F4E6CE8091E80085FDF2CF809138
:10518000E8008B778093E8000E94A802882399F3B7
:10519000D8CE8D3009F4A1C0B8F4843009F484C0AD
:1051A00048F4823049F108F070C0813009F18FEF86
:1051B000898332C0863009F48DC008F480C08C30F9
:1051C000B1F780E18A8328C0813109F4E2C040F45C
:1051D0008F3009F4B0C008F484C00E94580A1CC083
:1051E000833109F400C108F4D6C08E3F01F7C5CE63
:1051F0001A8289E08B8310C08A81823009F48CC2C4
:10520000833099F1813099F60E9411040E94F02CAC
:105210006B837C838D839E838091C405843009F0E9
:105220004DCBF090E9003F2D3F70F32E9091EC00B4
:10523000892F817090FD80E8F82A82E08093E90050
:105240008091E80080FF0CC050E040E060E270E038
:10525000C8010E94D9028091E8008E778093E8000F
:105260008F2D8F708093E90029CB8091140190914C
:105270001501892B89F280914F0490915004982751
:10528000892798279C838B83C7CF8A81823009F036
:105290008ECF6B817C818D819E810E94F02C86E275
:1052A00090E00E94322DB8CF4C816B818A810E94A0
:1052B000D70B9827892798279E838D83ADCF2D8183
:1052C0003E813227232732274C816B818A810E94BD
:1052D000990AA2CF0E94D30A9FCF82E08A838DEFE2
:1052E00089CFEC80F12CEDE1EE16F10408F094CFBB
:1052F000CA80DB80DC24CD24DC245801E00EF11EC2
:10530000C6018D5F9E4FAE14BF0409F485CFFDEF3B
:10531000CF16F2E0DF0660F40E94242DD50114962A
:105320008C93FFEFCF1ADF0A2FEFA21AB20AE8CF51
:10533000F5011482F6CF8091140190911501892B0B
:1053400009F46ACFCC80D12C3DE1C316D10408F01A
:1053500063CFEA80FB80FE24EF24FE245801CE0CAC
:10536000DF1CC7018D5F9E4FCE14DF0409F454CFBC
:105370004DEFE41642E0F40628F4D50114966C9142
:105380000E94322DBFEFAB1ABB0AEFEFEE1AFE0AF6
:10539000E8CF82E017CFEC80F12CFDE1EF16F104AD
:1053A00008F03ACFCA80DB80DC24CD24DC2458010D
:1053B000E00EF11EC6018796AE14BF0409F42CCF8F
:1053C0002CE2C216D10460F40E94242DD50114965B
:1053D0008C93FFEFCF1ADF0A2FEFA21AB20AEACF9F
:1053E000F5011482F6CFCC80D12C3DE1C316D10457
:1053F00008F012CFEA80FB80FE24EF24FE244CE26A
:10540000E416F10408F008CF8CE290E08E199F09B1
:105410008C159D0508F400CF5801CE0CDF1CC70188
:105420008796EC14FD0409F4F7CEACE2EA16F10419
:1054300020F4F50164810E94322DFFEFAF1ABF0AFC
:105440002FEFE21AF20AEBCF88E0E7E1F1E0DE01AC
:10545000919601900D928A95E1F780E2D8011D9214
:105460008A95E9F785E0898388E0FE01B196DE013F
:10547000159601900D928A95E1F7CECE80EF898343
:105480001A821B821C82C8CE8C81682F70E0762F16
:1054900066278B81860F972F911D092E000CAA0B72
:1054A000BB0B35E0880F991FAA1FBB1F3A95D1F798
:1054B000AC01BD01405E5F4F6F4F7F4F48175907EA
:1054C0006A077B0708F4A8CE803F9105A105B105C6
:1054D00008F0A2CE413F51056105710520F040EF73
:1054E00050E060E070E0481B590BBC0166517E4FF4
:1054F000C8010E94F72C90CEFB80EC8040E06E2D1E
:105500008F2D0E949E0B9827892798279A8389833D
:1055100041E06E2D8F2D0E949E0BB1CE8E819F811A
:105520009827892798270E94DF0441E02D812111C7
:1055300001C040E09C016C818B810E94680A6CCEA6
:105540004EE150E06FEF70E0CE0103960E940D2D0A
:10555000809114018983EA825FCE81E090E090938C
:105560006E0580936D0582E390E090934E048093E6
:105570004D040E94EE0E50CE809114018983EA8280
:1055800080914D0437CE40E250E06FEF70E0C801EB
:105590000E940D2D41CE8B81823009F452C0F0F46F
:1055A000882309F446C0813009F036CE8C819AE018
:1055B000F92E6E01F1E2CF0ED11CD601EF2D1D9216
:1055C000EA95E9F7B6010E946E0B8983F601DE01C8
:1055D000129601900D92FA94E1F71ECE853009F4EF
:1055E00067C0863009F018CEFC808AE0FE0135964F
:1055F000DE01919601900D928A95E1F78BA19CA115
:105600000E94DF049CA38BA3F7E08FEFFF1568F0E7
:105610002AE0F29EB00111246D547F4F4AE050E021
:10562000CE0181960E94562D80E089830E94EC0C69
:10563000F3CD80E2F80111928A95E9F788E0898339
:10564000D9CDFC808AE0FE013596DE01919601906D
:105650000D928A95E1F789A19AA10E94DF049AA38D
:1056600089A38BA19CA10E94DF049CA38BA38DA185
:105670009EA10E94DF049EA38DA38FA198A50E94E6
:10568000DF0498A78FA3F7E08FEFFF1568F02AE0FB
:10569000F29EB00111246D597F4F4AE050E0CE01D7
:1056A00081960E94562D80E089830E94C704B4CD64
:1056B0006C812AE0CE018196DC01E22F1D92EA95F1
:1056C000E9F7683088F4629FB00111246D547F4F70
:1056D0004AE050E00E94142D80E089838AE0FE01B8
:1056E000B196DE011296C5CE8FEFF7CF09BD19BD79
:1056F00009B400FEFDCF8091D8008F7D8093D80043
:105700008091E00082608093E0008091E00081FD64
:10571000FCCF0E94CB10E9C986E290E00E94242DC4
:105720001B821C821D828E8377CD2B30310508F0C1
:105730008CCBC4CB2B30310508F038CB70CB10921A
:10574000B9008CE08093B8000895B0E0A0E0EBEAE7
:10575000FBE20C94A62CB82EEB010E94EE0E6C011D
:10576000EE24E394F12CC431D10560F025E0E22E63
:10577000F12CCF3FDC0731F0CE0164E170E00E94F4
:105780008B2C7B0184EAA82E94E8992E1092BC0001
:10579000A092BC000E94EE0E8C018091BC0087FF9D
:1057A0000DC08091B900887F8830F9F08091B900F0
:1057B000887F8031D1F00FEF1FEF08C0C8010E9431
:1057C000DF0EE816F90648F70EEF1FEFCF3FDC07B4
:1057D000E9F2C6010E94DF0EC817D907B8F6C80162
:1057E000CDB7DEB7EBE00C94C22CB092BB00909228
:1057F000BC000E94EE0E8C018091BC0087FF0AC0A5
:105800008091B900887F883111F08034A1F610E0D2
:1058100000E0E5CFC8010E94DF0EE816F90660F748
:10582000D3CF0F931F93CF93DF93EB018093BB00F4
:1058300084E88093BC000E94EE0E8C018091BC0035
:1058400087FF11C02091B900287F81E090E02832C5
:1058500011F490E080E0919581959109DF91CF91CD
:105860001F910F910895CF3FDC0741F3C8010E94BB
:10587000DF0EC817D90710F78EEF9FEFEFCFB0E01C
:10588000A0E0E5E4FCE20C94A92C6B018A0179010B
:10589000B9010E94A52BE6010C0D1D1DC017D107F3
:1058A00011F097FF08C024E92093BC00CDB7DEB704
:1058B000E8E00C94C52CB70189910E94112CEECF21
:1058C000B0E0A0E0E6E6FCE20C94A92CC62F6A0149
:1058D0007901B8010E94A52B97FD0CC0B8018C2F4F
:1058E0000E94112CE601EC0CFD1CCE15DF0511F019
:1058F00097FF08C024E92093BC00CDB7DEB7E8E0ED
:105900000C94C52CB80189910E94112CEECF84E92A
:105910008093BC000895AA1BBB1B51E107C0AA1FBE
:10592000BB1FA617B70710F0A61BB70B881F991F40
:105930005A95A9F780959095BC01CD0108952F92B5
:105940003F924F925F926F927F928F929F92AF920F
:10595000BF92CF92DF92EF92FF920F931F93CF935C
:10596000DF93CDB7DEB7CA1BDB0B0FB6F894DEBFF3
:105970000FBECDBF09942A88398848885F846E8419
:105980007D848C849B84AA84B984C884DF80EE8063
:10599000FD800C811B81AA81B981CE0FD11D0FB66C
:1059A000F894DEBF0FBECDBFED01089597FB072E23
:1059B00016F4009407D077FD09D00E948B2C07FCC9
:1059C00005D03EF4909581959F4F0895709561950F
:1059D0007F4F0895EE0FFF1F0590F491E02D09947D
:1059E0006927962769277827872778270895FB0155
:1059F000DC0102C005900D9241505040D8F7089547
:105A0000FB01DC0104C08D910190801921F441500B
:105A10005040C8F7881B990B0895DC0101C06D93B5
:105A200041505040E0F70895DC01CB01FC01F999A9
:105A3000FECF06C0F2BDE1BDF89A319600B40D92DA
:105A400041505040B8F70895F999FECF92BD81BDFD
:105A5000F89A992780B50895A8E1B0E042E050E0B7
:105A60000C94162D262FF999FECF92BD81BDF89A80
:105A7000019700B4021639F01FBA20BD0FB6F89492
:105A8000FA9AF99A0FBE08950396272F0E94332D94
:105A90000E94322D252F0E94332D242F0C94332D5C
:105AA0000196272F0E94332D0C94322DDC01CB015F
:105AB00003C02D910E94612D41505040D0F70895B0
:105AC000262FF999FECF1FBA92BD81BD20BD0FB61A
:105AD000F894FA9AF99A0FBE01960895F894FFCFB8
